:020000040800F2
:100000000811002071120008DD120008D90800084C
:10001000DD120008DD120008DD12000800000000FB
:10002000000000000000000000000000DD120008D9
:10003000DD12000800000000DD120008C12D0008DC
:10004000DD120008DD120008DD120008DD120008D4
:10005000DD120008DD120008DD120008DD120008C4
:10006000DD120008DD120008DD120008DD120008B4
:10007000DD120008DD120008DD120008DD120008A4
:10008000DD120008DD120008DD120008DD12000894
:10009000DD120008DD120008DD120008DD12000884
:1000A00029030008DD120008DD120008DD12000837
:1000B000DD120008DD120008DD120008DD12000864
:1000C000DD120008DD120008DD120008DD12000854
:1000D000DD120008DD120008DD120008DD12000844
:1000E000DD120008DD120008DD120008DD12000834
:1000F000DD120008DD120008DD120008DD12000824
:10010000DD120008DD120008DD120008DD12000813
:10011000DD120008DD120008DD120008DD12000803
:10012000DD120008DD120008DD120008DD120008F3
:10013000DD120008DD120008DD120008DD120008E3
:10014000DD120008DD120008DD120008DD120008D3
:10015000DD1200085D080008DD120008DD1200084D
:10016000DD120008DD120008DD120008DD120008B3
:10017000DD120008DD120008DD120008DD120008A3
:10018000DD120008DD12000880B582B000AF786093
:1001900078680021102204F0A1FC0837BD4680BD1C
:1001A00080B58AB000AF4FF48030012101F0BCF976
:1001B0000120012101F048F908237B6102233B76ED
:1001C00000237B760023BB760023FB7607F1140324
:1001D0002D48194601F032FA2B480321032201F081
:1001E000DDFB18233B7400237B740123BB740123C4
:1001F000FB7407F11003184602F0F0FD3B1D184692
:1002000002F048FF214B1B68214AA2FB03235B0B32
:100210009BB2013B9BB2BB804FF0FF33BB6000231E
:10022000BB813B1D1B48194602F054FE0423BB83CF
:100230000023FB8301233B8404237B840023BB84B2
:1002400007F11C031348194602F0C0FF1148602152
:1002500003F0FEFA0F48042103F07EFB0D488021D5
:1002600003F0DAFB0B480421012203F059F9094895
:100270000221012203F054F90648012102F024FF73
:100280002837BD4680BD00BF00000240100000209E
:100290005917B7D10040014080B582B000AF7860F7
:1002A0007B681B68002B07D1FFF77AFF7B68044A45
:1002B0009A607B6801221A600837BD4680BD00BF86
:1002C0009E0800200000000080B584B000AF786078
:1002D0007B689B681B88FB81FB895B00184603F0E9
:1002E000D5FD02460B460EA1D1E9000103F05EFFE9
:1002F00002460B461046194604F040F802467B6859
:10030000DA60FB8941F28832934202D8FB89002BE4
:1003100003D17B684FF00002DA601037BD4680BD24
:10032000000000000088C34080B500AF12480421DF
:1003300003F088F90346012B14D10F4802F0D6FFD1
:1003400003469AB20D4B1A800C4B1B889BB2002BB4
:1003500004D00A4B1B889AB2094B1A800648042124
:1003600003F00EFA074B1B680133064A136002487C
:10037000022103F005FA80BD004001409C080020E6
:100380009E080020A008002080B586B000AF0120A4
:10039000012101F059F84FF00050012101F08CF8D3
:1003A00020233B6103233B750023BB750023FB75B2
:1003B00000237B7507F110030C48194601F03EF944
:1003C0003B46184600F0D2FE00233B6000237B60D2
:1003D0000023FB603B461020194600F0D7FD10209B
:1003E000012100F0D9FE1837BD4680BD0000024053
:1003F00080B500AFFFF7C8FF80BD00BF80B582B0F9
:1004000000AF0120012101F01FF840233B600123D0
:100410003B710023BB710223FB7102237B713B46BE
:100420000648194601F00AF980233B603B46034821
:10043000194601F003F90837BD4680BD00000240AF
:1004400080B500AFFFF7D4FFFFF7D8FF80BD00BF36
:1004500080B500AF05484021012201F005FA0348AC
:100460008021002201F000FA80BD00BF00000240A0
:1004700080B500AF05484021002201F0F5F903489E
:100480008021012201F0F0F980BD00BF0000024090
:1004900080B500AF05484021002201F0E5F903488E
:1004A0008021002201F0E0F980BD00BF0000024081
:1004B00080B582B000AF78607B689B007B607B6812
:1004C000002B08DDFFF7C4FF7B689BB200201946B4
:1004D00000F09CFE13E07B68002B06D1FFF7D8FFED
:1004E0000020002100F092FE09E0FFF7C1FF7B68C9
:1004F0009BB25B429BB20020194600F087FE083792
:10050000BD4680BD80B582B000AF78600B46FB7001
:1005100001204FF4077103F081FF03461A467B6800
:100520001A607B681B6803221A707B681B684FF493
:1005300080729A607B681A687B68196800230B6177
:10054000D3600837BD4680BD80B598B000AF77480E
:100550000321FFF7D7FF754B1B68FB65734B1B68C7
:10056000734AC3F818220420012100F06DFF042013
:10057000012100F069FF4FF48000012100F064FFC9
:100580002020012100F0D0FF4FF48000012100F075
:100590005BFF68480621082201F000FA6548072140
:1005A000082201F0FBF9022387F84430022387F880
:1005B0004530002387F84630012387F84730402331
:1005C0003B6407F140035B48194601F037F880238C
:1005D0003B6407F140035748194601F02FF84FF4E8
:1005E000E133FB640023A7F850300023A7F8523012
:1005F0000023A7F854300023A7F858300C23A7F89D
:10060000563007F14C034A48194600F003FA4A48AD
:1006100001F0BAFB4FF020637B6040233B61474B06
:10062000BB60424B1B681833FB604FF480737B61E7
:1006300000233B6200237B620023BB614FF4806395
:10064000FB610023BB624FF40033FB6204233B6376
:1006500003237B630023BB630023FB633B1D3648FE
:10066000194601F0A7FC3448002101F0F3FE32489E
:100670009421012202F00EF82D488021002200F082
:1006800085FB2D48002101F059FE2D4801F07CFB2F
:100690004FF020637B60294BBB60FB6D03F58C73CF
:1006A000FB6000233B614FF480737B610023BB61DF
:1006B0004FF48063FB6100233B6200237B624FF4B5
:1006C0008073BB624FF40033FB6200233B63002363
:1006D000BB630023FB633B1D1948194601F06AFC0C
:1006E0001748184901F02AFF1548012101F026FE9C
:1006F0000F484021012200F049FB452387F848308C
:10070000002387F84930002387F84A30012387F80F
:100710004B3007F14803184602F060FB0448012102
:1007200000F0E0FA6037BD4680BD00BFFC08002045
:100730000014014000080240A0640240041401407B
:1007400028640240000E001080B582B000AF7860CF
:100750007B68D3F818321846402100F07DFB034631
:10076000012B0CBF01230023DBB218460837BD461E
:1007700080BD00BF90B583B000AF786000BF154B5F
:100780001B681846FFF7E0FF0346002BF7D0114B1C
:100790001B6818331846796804F004FA0E4C0D4BA8
:1007A0001B681833184604F023FA03469BB26360B3
:1007B000094A094B1B6843F001031360074A074BC2
:1007C0009B8A9BB243F080039BB293820C37BD4659
:1007D00090BD00BFFC080020A0640240001401404E
:1007E0000FB490B583B000AF00BF194B1B6818461B
:1007F000FFF7AAFF0346002BF7D007F11C037B602D
:10080000134B1B68183318464FF48071BA697B6824
:1008100005F0C0FC0F4C0E4B1B681833184604F053
:10082000E7F903469BB263600A4A0A4B1B6843F030
:1008300001031360084A084B9B8A9BB243F0800374
:100840009BB293820C37BD46BDE8904004B0704720
:10085000FC080020A06402400014014080B500AFF5
:100860001848194901F0CCFF0346002B12D0154A55
:10087000144B1B6823F001031360144A134B9B8A2B
:100880009BB223F080039BB293820E480E4902F084
:1008900073F916E00B480E4901F0B2FF0346002B36
:1008A00004D008480A4902F067F90AE005480949F6
:1008B00001F0A6FF0346002B03D00248054902F0D1
:1008C0005BF980BDA064024000802020001401403C
:1008D00000200820000001A080B400AF1EF0040F2B
:1008E0000CBFEFF30880EFF3098000F005B8BD46B8
:1008F0005DF8047B704700BF80B58AB000AF7860B8
:100900007B681B687B627B685B683B627B689B687B
:10091000FB617B68DB68BB617B681B697B617B6813
:100920005B693B617B689B69FB607B68DB69BB60E3
:100930002348FFF755FF2348796AFFF751FF224804
:10094000396AFFF74DFF2148F969FFF749FF204851
:10095000B969FFF745FF1F487969FFF741FF1E4856
:100960003969FFF73DFF1D48F968FFF739FF1C485B
:10097000B968FFF735FF1B4B1B681B481946FFF78B
:100980002FFF1A4B1B681A481946FFF729FF194B0E
:100990001B6819481946FFF723FF184B1B681848B6
:1009A0001946FFF71DFF174B1B6817481946FFF73D
:1009B00017FF164B5B6A16481946FFF711FFFEE753
:1009C0006887000898870008A4870008B087000897
:1009D000BC870008C8870008D4870008048800087E
:1009E0002488000838ED00E03088000828ED00E099
:1009F0003C8800082CED00E04888000830ED00E05D
:100A0000548800083CED00E06088000800ED00E03C
:100A10006C88000880B58AB000AF78603960002328
:100A20007B6200233B620023FB610023BB617B6888
:100A3000984A934217D07B68974A934213D07B68B9
:100A4000964A93420FD07B68954A93420BD07B68BD
:100A5000944A934207D07B68934A934203D09348C9
:100A6000EB2100F07DFA3B681B68002B04D03B684B
:100A70001B688F4A934203D98C48EC2100F070FA2E
:100A80003B689B88002B08D03B689B88B3F5805F50
:100A900003D08648ED2100F063FA3B68DB88002B29
:100AA00012D03B68DB88B3F5805F0DD03B68DB88F4
:100AB000B3F5005F08D03B68DB88B3F5405F03D037
:100AC0007A48EE2100F04CFA3B681B89002B0DD0D0
:100AD0003B681B89B3F5806F08D03B681B89B3F571
:100AE000C06F03D07148EF2100F03AFA3B685B8990
:100AF0001A464FF6F3731340002B03D13B685B8912
:100B0000002B03D16948F02100F02AFA3B689B8949
:100B1000002B12D03B689B89B3F5807F0DD03B68DA
:100B20009B89B3F5007F08D03B689B89B3F5407F74
:100B300003D05E48F12100F013FA3B689B89002B3B
:100B400013D07B68534A93420FD07B68524A93423A
:100B50000BD07B68514A934207D07B68524A93423C
:100B600003D05248F62100F0FBF97B681B8A9BB248
:100B70007B627B6A23F440537B623B68DB881A46C6
:100B80007B6A13437B627B6A9AB27B681A827B68BA
:100B90009B899BB27B627B6A23F4B05323F00C03E6
:100BA0007B623B689A883B681B8913439AB23B6817
:100BB0005B8913439BB21A467B6A13437B627B6A51
:100BC0009AB27B689A817B689B8A9BB27B627B6AC4
:100BD00023F440737B623B689B891A467B6A13430C
:100BE0007B627B6A9AB27B689A8207F10803184697
:100BF00000F080FB7B68274A934203D07B682A4A37
:100C0000934202D17B693B6201E03B693B627B68B6
:100C10009B899BB29BB21BB2002B0CDA3A6A13463B
:100C20009B0013449A001A443B681B685B00B2FBAC
:100C3000F3F3FB610BE03A6A13469B0013449A00FE
:100C40001A443B681B689B00B2FBF3F3FB61FB6932
:100C5000184AA2FB03235B091B017B627B6A1B0909
:100C6000642202FB03F3FA69D31ABB617B689B8998
:100C70009BB29BB21BB2002B1EDABB69DB00323386
:100C80000C4AA2FB03235B0903F007037A6A1343B0
:100C90007B621DE00010014000440040004800401D
:100CA000004C00400050004000140140C48800087F
:100CB000E07072001F85EB51BB691B013233084A9B
:100CC000A2FB03235B0903F00F037A6A13437B62E1
:100CD0007B6A9AB27B681A812837BD4680BD00BF07
:100CE0001F85EB5180B582B000AF78600B46FB707A
:100CF0007B681F4A934218D07B681E4A934214D0E7
:100D00007B681D4A934210D07B681C4A93420CD0EA
:100D10007B681B4A934208D07B681A4A934204D0EE
:100D2000194840F29B1100F01BF9FB78002B07D00B
:100D3000FB78012B04D014484FF4CE7100F010F969
:100D4000FB78002B08D07B689B899BB243F400534F
:100D50009AB27B689A8107E07B689B899BB223F4F7
:100D600000539AB27B689A810837BD4680BD00BFA8
:100D7000001001400044004000480040004C00408A
:100D80000050004000140140C488000880B582B0C3
:100D900000AF78600B467B8013467B707B68274AE8
:100DA000934218D07B68264A934214D07B68254A28
:100DB000934210D07B68244A93420CD07B68234A2C
:100DC000934208D07B68224A934204D0214840F2E3
:100DD0003B4100F0C5F87A884FF63F731340002B73
:100DE00002D17B88002B04D11A4840F23C4100F02C
:100DF000B7F87B78002B07D07B78012B04D01548FF
:100E000040F23D4100F0ACF87B78002B08D07B68C5
:100E10009B8A9AB27B8813439AB27B689A8209E0D4
:100E20007B689B8A9AB27B88DB439BB213409AB261
:100E30007B689A820837BD4680BD00BF0010014024
:100E40000044004000480040004C0040005000407A
:100E500000140140C488000880B584B000AF7860F9
:100E60000B467B800023FB737B68364A934218D085
:100E70007B68354A934214D07B68344A934210D041
:100E80007B68334A93420CD07B68324A934208D045
:100E90007B68314A934204D0304840F2FC4100F074
:100EA0005FF87B88012B21D07B88802B1ED07B882C
:100EB000402B1BD07B88202B18D07B88102B15D083
:100EC0007B88B3F5807F11D07B88B3F5007F0DD090
:100ED0007B88082B0AD07B88042B07D07B88022BC9
:100EE00004D01E4840F2FD4100F03AF87B88B3F58B
:100EF000007F14D17B68134A934210D07B68124A5A
:100F000093420CD07B68114A934208D07B68124A06
:100F1000934204D0114840F2025100F021F87B685E
:100F20001B889AB27B8813409BB2002B02D001230E
:100F3000FB7301E00023FB73FB7B18461037BD46B3
:100F400080BD00BF00100140004400400048004048
:100F5000004C00400050004000140140C4880008CC
:100F600080B5B4B000AF786039603B6807F1080223
:100F7000104605497A6803F015FE07F10803184684
:100F8000FFF7F8FBFEE700BF0889000880B584B0D2
:100F900000AF786039600023FB600023BB603B68D2
:100FA0001B68002B23D03B681B68042B1FD03B68B9
:100FB0001B680C2B1BD03B681B68142B17D03B689D
:100FC0001B681C2B13D03B681B68242B0FD03B687D
:100FD0001B682C2B0BD03B681B68342B07D03B685D
:100FE0001B683C2B03D05F48C621FFF7B9FF3B6865
:100FF0005B68002B0BD03B685B68402B07D03B68DD
:101000005B68802B03D05748C721FFF7A9FF3B68D7
:101010009B68002B75D03B689B68B3F5807F70D0D0
:101020003B689B68B3F5007F6BD03B689B68B3F56A
:10103000407F66D03B689B68B3F5806F61D03B68AA
:101040009B68B3F5A06F5CD03B689B68B3F5C06F3D
:1010500057D03B689B68B3F5E06F52D03B689B6804
:10106000B3F5006F4DD03B689B68B3F5106F48D067
:101070003B689B68B3F5206F43D03B689B68B3F532
:10108000306F3ED03B689B68002B3AD03B689B6832
:10109000B3F5807F35D03B689B68B3F5007F30D0D7
:1010A0003B689B68B3F5407F2BD03B689B68B3F5EA
:1010B000806F26D03B689B68B3F5A06F21D03B685A
:1010C0009B68B3F5C06F1CD03B689B68B3F5E06FBD
:1010D00017D03B689B68B3F5006F12D03B689B68E4
:1010E000B3F5106F0DD03B689B68B3F5206F08D047
:1010F0003B689B68B3F5306F03D01A48C821FFF7EF
:101100002FFF3B68DB68002B07D03B68DB68022BB6
:1011100003D01448C921FFF723FF134B1B68FB6062
:101120007B6840F6FE7202FA03F3DB43FA68134071
:10113000FB603B681A683B685B681A433B689B68C6
:101140001A433B68DB681343BB607B68BA6802FAEA
:1011500003F3FA681343FB60034AFB68136010371C
:10116000BD4680BD388900080074004080B483B05B
:1011700000AF78607B6800221A607B6800225A60AA
:101180007B6800229A607B680022DA600C37BD46DB
:101190005DF8047B704700BF80B582B000AF786017
:1011A0000B46FB707B68002B07D07B68102B04D0AC
:1011B00014484FF48071FFF7D3FEFB78002B07D063
:1011C000FB78012B04D00F4840F20111FFF7C8FE55
:1011D000FB78002B09D00C490B4B1A687B68012067
:1011E00000FA03F313430B6009E00749064B1A6842
:1011F0007B68012000FA03F3DB4313400B600837E0
:10120000BD4680BD388900080074004080B584B0B8
:1012100000AF78600B467B800023FB607B68002B6F
:101220000AD07B68042B07D07B68082B04D00E48BB
:1012300040F28B11FFF794FE7B884FF6F0729342D9
:1012400004D909484FF4C671FFF78AFE074BFB60CB
:10125000FA687B6813441433FB60FB681A467B888A
:1012600013601037BD4680BD388900080074004007
:1012700080B582B000AF134B7B60134B3B6007E03F
:101280003B681A1D3A607A68111D796012681A600D
:101290003B680E4A9342F3D30D480E494FF00002CB
:1012A0008842B8BF40F8042BFADBDFF82C00016855
:1012B00041F47001016000F099FC00F013F8083768
:1012C000BD4680BD648C0008000000209C08002002
:1012D0009C0800200409002088ED00E080B400AFE5
:1012E000FEE700BF80B500AF00F056F900F068F9E6
:1012F000FCE700BF80B489B000AF78600023BB6119
:1013000000237B610023FB6102233B610023FB6020
:101310000223BB60484B9B6803F00C03BB61BB69B5
:10132000042B07D0082B09D0002B3FD17B68434A00
:101330001A603FE07B68424A1A603BE03E4B5B68C4
:1013400003F480039B0DFB603B4B5B6803F03F03A2
:10135000BB60FB68002B0DD0394ABB68B2FBF3F2CF
:10136000354B596847F6C0730B409B0903FB02F3EA
:10137000FB610CE0314ABB68B2FBF3F22E4B5968BB
:1013800047F6C0730B409B0903FB02F3FB612A4B3A
:101390005B6803F440331B0C01335B003B61FA696B
:1013A0003B69B2FBF3F27B681A6003E07B68234A77
:1013B0001A6000BF204B9B6803F0F003BB61BB6960
:1013C0001B09BB611F4ABB6913441B78DBB27B61FD
:1013D0007B681A687B69DA407B685A60164B9B68A9
:1013E00003F4E053BB61BB699B0ABB61154ABB694F
:1013F00013441B78DBB27B617B685A687B69DA40F7
:101400007B689A600C4B9B6803F46043BB61BB69CB
:101410005B0BBB610B4ABB6913441B78DBB27B617E
:101420007B685A687B69DA407B68DA602437BD469E
:101430005DF8047B704700BF003802400024F400D0
:1014400000127A000000002080B582B000AF786002
:101450000B46FB707A68154B1340002B02D17B685A
:10146000002B04D112484FF48861FFF779FDFB7817
:10147000002B07D0FB78012B04D00D4840F24241ED
:10148000FFF76EFDFB78002B06D00A49094B1A6B5B
:101490007B6813430B6306E00649064B1A6B7B68B7
:1014A000DB4313400B630837BD4680BD00EE8B81E4
:1014B0007C8900080038024080B582B000AF7860B7
:1014C0000B46FB707A68154B1340002B02D17B68EA
:1014D000002B04D1124840F2AD41FFF741FDFB78EB
:1014E000002B07D0FB78012B04D00D4840F2AE4111
:1014F000FFF736FDFB78002B06D00A49094B1A6C22
:101500007B6813430B6406E00649064B1A6C7B6844
:10151000DB4313400B640837BD4680BD003601C96C
:101520007C8900080038024080B582B000AF786046
:101530000B46FB707A68154B1340002B02D17B6879
:10154000002B04D1124840F2D541FFF709FDFB788A
:10155000002B07D0FB78012B04D00D4840F2D64178
:10156000FFF7FEFCFB78002B06D00A49094B5A6CAA
:101570007B6813434B6406E00649064B5A6C7B6854
:10158000DB4313404B640837BD4680BDCCA0F8FF59
:101590007C8900080038024080B500AF064801F0A1
:1015A000EFFBFEF7D1FFFEF74BFF0448FEF7ECFD23
:1015B0000248FEF771FE80BD40420F00A4080020E3
:1015C00080B582B000AF01F0CFFB78601548FEF720
:1015D0007BFE154B1B687A68D31A3B603B68134A45
:1015E00093421BD90F4BDB68184602F061FC0246A0
:1015F0000B460F48FFF7F4F80E4B1B68B3F57A7FE4
:1016000002DB0C4B0C4A1A600A4B1B68C833094AB0
:101610001360084B1B681846FEF74AFF0837BD46A3
:1016200080BD00BFA4080020B4080020400D0300C6
:10163000C0890008B808002018FCFFFF80B586B0FC
:1016400000AF7860396000237B6100233B61002399
:10165000FB607B687A4A934223D07B68794A934245
:101660001FD07B68784A93421BD07B68774A9342AD
:1016700017D07B68764A934213D07B68754A9342B1
:101680000FD07B68744A93420BD07B68734A9342B5
:1016900007D07B68724A934203D07248BB21FFF7A0
:1016A0005FFC3B681B68002B03D16E48BC21FFF731
:1016B00057FC3B681B79002B0FD03B681B79012B33
:1016C0000BD03B681B79022B07D03B681B79032B9F
:1016D00003D06448BD21FFF743FC3B68DB79002B56
:1016E0000BD03B68DB79012B07D03B68DB79022B01
:1016F00003D05C48BE21FFF733FC00237B6197E0F9
:101700007B69012202FA03F33B613B681A683B697B
:101710001340FB60FA683B699A4240F086807B6820
:101720001A687B695B00194603238B40DB431A4030
:101730007B681A607B681A683B681B7919467B696D
:101740005B0001FA03F31A437B681A603B681B795C
:10175000012B03D03B681B79022B4ED13B685B7990
:10176000002B0FD03B685B79012B0BD03B685B797A
:10177000022B07D03B685B79032B03D03948D0217B
:10178000FFF7EEFB7B689A687B695B0019460323D1
:101790008B40DB431A407B689A607B689A683B68A1
:1017A0005B7919467B695B0001FA03F31A437B6896
:1017B0009A603B689B79002B07D03B689B79012B93
:1017C00003D02848D721FFF7CBFB7B685A687B6999
:1017D0009BB2194601238B40DB431A407B685A6059
:1017E0007B685B683A68927911467A6992B201FA2D
:1017F00002F292B21A437B685A607B68DA687B69AE
:101800009BB25B00032101FA03F3DB431A407B68C0
:10181000DA607B68DA683B68DB7919467B695B00D4
:1018200001FA03F31A437B68DA607B6901337B6159
:101830007B690F2B7FF664AF1837BD4680BD00BFB4
:10184000000002400004024000080240000C024078
:10185000001002400014024000180240001C024028
:1018600000200240D089000880B582B000AF7860C7
:101870000B467B8013467B707B683E4A934224D0A4
:101880007B683D4A934220D07B683C4A93421CD0FF
:101890007B683B4A934218D07B683A4A934214D003
:1018A0007B68394A934210D07B68384A93420CD007
:1018B0007B68374A934208D07B68364A934204D00B
:1018C00035484FF4D371FFF74BFB7B88012B39D0A0
:1018D0007B88022B36D07B88042B33D07B88082B67
:1018E00030D07B88102B2DD07B88202B2AD07B8872
:1018F000402B27D07B88802B24D07B88B3F5807F3A
:1019000020D07B88B3F5007F1CD07B88B3F5806F37
:1019100018D07B88B3F5006F14D07B88B3F5805F57
:1019200010D07B88B3F5005F0CD07B88B3F5804F77
:1019300008D07B88B3F5004F04D0174840F2A711B8
:10194000FFF70EFB7B78002B07D07B78012B04D0B0
:1019500011484FF4D471FFF703FB7B78002B03D0C1
:101960007B687A881A8302E07B687A885A83083712
:10197000BD4680BD00000240000402400008024055
:10198000000C024000100240001402400018024007
:10199000001C024000200240D089000880B584B0BD
:1019A00000AF78600B467B8013467B700023FB60A2
:1019B0000023BB607B68834A934224D07B68824AC1
:1019C000934220D07B68814A93421CD07B68804A36
:1019D000934218D07B687F4A934214D07B687E4A3A
:1019E000934210D07B687D4A93420CD07B687C4A3E
:1019F000934208D07B687B4A934204D07A4840F2F5
:101A00001721FFF7ADFA7B88002B31D07B88012BA3
:101A10002ED07B88022B2BD07B88032B28D07B8871
:101A2000042B25D07B88052B22D07B88062B1FD04A
:101A30007B88072B1CD07B88082B19D07B88092B2F
:101A400016D07B880A2B13D07B880B2B10D07B8879
:101A50000C2B0DD07B880D2B0AD07B880E2B07D04A
:101A60007B880F2B04D060484FF40671FFF778FA9B
:101A70007B78002B6DD07B78092B6AD07B78002B8C
:101A800067D07B78002B64D07B78002B61D07B788B
:101A9000002B5ED07B78012B5BD07B78012B58D05C
:101AA0007B78022B55D07B78022B52D07B78022B8F
:101AB0004FD07B78032B4CD07B78042B49D07B789C
:101AC000042B46D07B78042B43D07B78052B40D069
:101AD0007B78052B3DD07B78092B3AD07B78062B81
:101AE00037D07B78092B34D07B78072B31D07B78AB
:101AF000072B2ED07B78072B2BD07B78082B28D078
:101B00007B78082B25D07B78082B22D07B78092B7B
:101B10001FD07B78092B1CD07B780A2B19D07B78BF
:101B20000A2B16D07B780B2B13D07B780C2B10D084
:101B30007B780C2B0DD07B780C2B0AD07B780D2B6F
:101B400007D07B780F2B04D0274840F21921FFF7EC
:101B500007FA7B787A8802F0070292009340FB60D4
:101B60007B88DB089BB218467B88DB089BB21A4651
:101B70007B68083253F822207B8803F007039B0020
:101B800019460F238B40DB4302EA03017B6800F117
:101B9000080243F822107B88DB089BB21A467B6858
:101BA000083253F82220FB681343BB607B88DB08B4
:101BB0009BB21A467B680832B96843F82210103786
:101BC000BD4680BD00000240000402400008024003
:101BD000000C0240001002400014024000180240B5
:101BE000001C024000200240D089000880B500AFF0
:101BF000154A154BD3F8883043F47003C2F8883087
:101C0000124A124B1B6843F0010313600F4B002272
:101C10009A600E4A0D4B1B6823F0847323F48033C3
:101C200013600A4B0A4A5A60084A084B1B6823F49F
:101C300080231360054B0022DA6000F00BF8024BA2
:101C40004FF000629A6080BD00ED00E00038024075
:101C50001030002480B483B000AF00237B600023E9
:101C60003B60354A344B1B6843F480331360324B7E
:101C70001B6803F400333B607B6801337B603B6887
:101C8000002B03D17B68B3F5A06FF0D12A4B1B6802
:101C900003F40033002B02D001233B6001E000235A
:101CA0003B603B68012B42D1234A234B1B6C43F022
:101CB00080531364214A214B1B6843F48043136013
:101CC0001D4A1D4B9B6893601B4A1B4B9B6843F44A
:101CD00000439360184A184B9B6843F4A0539360E9
:101CE000154B174A5A60144A134B1B6843F0807314
:101CF000136000BF104B1B6803F00073002BF9D07A
:101D0000104B40F205621A600B4A0B4B9B6823F0A4
:101D100003039360084A084B9B6843F002039360F7
:101D200000BF054B9B6803F00C03082BF9D10C375F
:101D3000BD465DF8047B70470038024000700040EB
:101D400008544007003C024080B485B000AF786082
:101D50000B4B1B68002B02D1094B0A4A1A60084B37
:101D60001B68FB60064B1A687B681344044A1360C7
:101D7000FB6818461437BD465DF8047B704700BF0A
:101D8000BC0800200409002080B582B000AF786054
:101D90007B68724A93423FD07B68714A93423BD042
:101DA0007B68704A934237D07B686F4A934233D046
:101DB0007B686E4A93422FD07B686D4A93422BD04A
:101DC0007B686C4A934227D07B686B4A934223D04E
:101DD0007B686A4A93421FD07B68694A93421BD052
:101DE0007B68684A934217D07B68674A934213D056
:101DF0007B68664A93420FD07B68654A93420BD05A
:101E00007B68644A934207D07B68634A934203D05D
:101E10006248BF21FFF7A4F87B681B6823F001022A
:101E20007B681A607B6800221A607B6800225A6017
:101E30007B6800229A607B680022DA607B6800225F
:101E40001A617B6821225A617B68444A934203D11C
:101E5000534B3D229A607EE07B68414A934204D115
:101E60004F4B4FF474629A6075E07B683D4A934231
:101E700004D14B4B4FF474129A606CE07B683A4A81
:101E8000934204D1464B4FF074629A6063E07B68E2
:101E9000364A934203D1424B424ADA605BE07B68A8
:101EA000334A934203D13E4B3F4ADA6053E07B68AA
:101EB000304A934203D13A4B3C4ADA604BE07B68AC
:101EC0002D4A934204D1364B4FF03D52DA6042E046
:101ED0007B682A4A934203D1354B3D229A603AE00F
:101EE0007B68274A934204D1314B4FF474629A6065
:101EF00031E07B68234A934204D12D4B4FF4741296
:101F00009A6028E07B68204A934204D1284B4FF026
:101F100074629A601FE07B681C4A934203D1244B91
:101F2000204ADA6017E07B68194A934203D1204BBC
:101F30001D4ADA600FE07B68164A934203D11C4BBE
:101F40001A4ADA6007E07B68134A934203D1184BC0
:101F50004FF03D52DA600837BD4680BD1060024048
:101F600028600240406002405860024070600240B9
:101F700088600240A0600240B860024010640240E5
:101F80002864024040640240586402407064024089
:101F900088640240A0640240B8640240148A0008C9
:101FA000006002403D000020400F002000003D2066
:101FB0000064024080B584B000AF786039600023CF
:101FC000FB607B68984A934240D07B68974A934273
:101FD0003CD07B68964A934238D07B68954A9342BE
:101FE00034D07B68944A934230D07B68934A9342C2
:101FF0002CD07B68924A934228D07B68914A9342C6
:1020000024D07B68904A934220D07B688F4A9342C9
:102010001CD07B688E4A934218D07B688D4A9342CD
:1020200014D07B688C4A934210D07B688B4A9342D1
:102030000CD07B688A4A934208D07B68894A9342D5
:1020400004D089484FF49E71FEF78AFF3B681B68F5
:10205000002B27D03B681B68B3F1007F22D03B6880
:102060001B68B3F1806F1DD03B681B68B3F1C06F74
:1020700018D03B681B68B3F1006F13D03B681B6836
:10208000B3F1206F0ED03B681B68B3F1406F09D0ED
:102090003B681B68B3F1606F04D0734840F23D1198
:1020A000FEF75EFF3B68DB68002B0CD03B68DB680B
:1020B000402B08D03B68DB68802B04D06A484FF483
:1020C0009F71FEF74DFF3B681B69002B04D03B68F6
:1020D0001B69B3F5803F04D3634840F23F11FEF71C
:1020E0003FFF3B685B69B3F5007F08D03B685B69E5
:1020F000002B04D05C484FF4A071FEF731FF3B6821
:102100009B69B3F5806F08D03B689B69002B04D0B6
:10211000554840F24111FEF723FF3B68DB69002B75
:102120000ED03B68DB69B3F5006F09D03B68DB6913
:10213000B3F5805F04D04C484FF4A171FEF710FF57
:102140003B681B6A002B0ED03B681B6AB3F5005F2F
:1021500009D03B681B6AB3F5804F04D0424840F277
:102160004311FEF7FDFE3B685B6A002B09D03B681C
:102170005B6AB3F5807F04D03B484FF4A271FEF751
:10218000EFFE3B689B6A002B13D03B689B6AB3F55C
:10219000803F0ED03B689B6AB3F5003F09D03B6897
:1021A0009B6AB3F5403F04D02F4840F24511FEF73B
:1021B000D7FE3B68DB6A002B08D03B68DB6A042B48
:1021C00004D029484FF4A371FEF7CAFE3B681B6B8D
:1021D000002B10D03B681B6B012B0CD03B681B6B9A
:1021E000022B08D03B681B6B032B04D01E4840F227
:1021F0004711FEF7B5FE3B685B6B002B36D03B68A2
:102200005B6BB3F5000F31D03B685B6BB3F1807F44
:102210002CD03B685B6BB3F1C07F27D012484FF4E2
:10222000A471FEF79DFE21E010600240286002408C
:102230004060024058600240706002408860024086
:10224000A0600240B860024010640240286402406E
:102250004064024058640240706402408864024056
:10226000A0640240B8640240148A00083B689B6B7B
:10227000002B13D03B689B6BB3F5001F0ED03B685F
:102280009B6BB3F5800F09D03B689B6BB3F5C00F18
:1022900004D0284840F24911FEF762FE7B681B68B3
:1022A000FB60FA68244B1340FB603B681A683B688C
:1022B000DB681A433B685B691A433B689B691A43B6
:1022C0003B68DB691A433B681B6A1A433B685B6ADD
:1022D0001A433B689B6A1A433B685B6B1A433B6833
:1022E0009B6B1343FA681343FB607B68FA681A60C0
:1022F0007B685B69FB60FB6823F00703FB603B685E
:10230000DA6A3B681B6B1343FA681343FB607B6814
:10231000FA685A613B681A697B685A603B685A6878
:102320007B689A603B689A687B68DA601037BD46C4
:1023300080BD00BF148A00083F801CF080B582B0C9
:1023400000AF78600B46FB707B68314A934240D007
:102350007B68304A93423CD07B682F4A934238D006
:102360007B682E4A934234D07B682D4A934230D00A
:102370007B682C4A93422CD07B682B4A934228D00E
:102380007B682A4A934224D07B68294A934220D012
:102390007B68284A93421CD07B68274A934218D016
:1023A0007B68264A934214D07B68254A934210D01A
:1023B0007B68244A93420CD07B68234A934208D01E
:1023C0007B68224A934204D0214840F2D911FEF79B
:1023D000C7FDFB78002B07D0FB78012B04D01C48ED
:1023E0004FF4ED71FEF7BCFDFB78002B06D07B6847
:1023F0001B6843F001027B681A6005E07B681B687C
:1024000023F001027B681A600837BD4680BD00BF1B
:102410001060024028600240406002405860024064
:102420007060024088600240A0600240B8600240D4
:102430001064024028640240406402405864024034
:102440007064024088640240A0640240B8640240A4
:10245000148A000880B582B000AF78600B467B809C
:102460007B68254A934240D07B68244A93423CD003
:102470007B68234A934238D07B68224A934234D007
:102480007B68214A934230D07B68204A93422CD00B
:102490007B681F4A934228D07B681E4A934224D00F
:1024A0007B681D4A934220D07B681C4A93421CD013
:1024B0007B681B4A934218D07B681A4A934214D017
:1024C0007B68194A934210D07B68184A93420CD01B
:1024D0007B68174A934208D07B68164A934204D01F
:1024E000154840F27521FEF73BFD7A887B685A60FB
:1024F0000837BD4680BD00BF106002402860024022
:1025000040600240586002407060024088600240B3
:10251000A0600240B860024010640240286402409B
:102520004064024058640240706402408864024083
:10253000A0640240B8640240148A000880B584B0E8
:1025400000AF786039607B683D4A934240D07B6839
:102550003C4A93423CD07B683B4A934238D07B68EC
:102560003A4A934234D07B68394A934230D07B68F0
:10257000384A93422CD07B68374A934228D07B68F4
:10258000364A934224D07B68354A934220D07B68F8
:10259000344A93421CD07B68334A934218D07B68FC
:1025A000324A934214D07B68314A934210D07B6800
:1025B000304A93420CD07B682F4A934208D07B6804
:1025C0002E4A934204D02E4840F22241FEF7C8FC26
:1025D0003B6803F04053B3F1405F0CD03B6803F01D
:1025E0004053002B07D03A68264B1340002B02D1F2
:1025F0003B68002B04D1224840F22341FEF7B0FC97
:102600007B68214A934202D8204BFB6001E0204BBB
:10261000FB603B6803F00053002B07D03B6823F0BE
:10262000F02323F08213FA68D36006E03B6823F0BE
:10263000F02323F08213FA6893601037BD4680BD03
:102640001060024028600240406002405860024032
:102650007060024088600240A0600240B8600240A2
:102660001064024028640240406402405864024002
:102670007064024088640240A0640240B864024072
:10268000148A000882F082C00F6402400060024099
:102690000064024080B584B000AFF860B9601346B2
:1026A000FB71FB68454A934240D0FB68444A934221
:1026B0003CD0FB68434A934238D0FB68424A93427D
:1026C00034D0FB68414A934230D0FB68404A934281
:1026D0002CD0FB683F4A934228D0FB683E4A934285
:1026E00024D0FB683D4A934220D0FB683C4A934289
:1026F0001CD0FB683B4A934218D0FB683A4A93428D
:1027000014D0FB68394A934210D0FB68384A934290
:102710000CD0FB68374A934208D0FB68364A934294
:1027200004D0364840F24F41FEF71AFCBB6823F054
:102730009E03002B02D1BB68002B04D12F484FF41D
:102740008A61FEF70DFCFB79002B07D0FB79012B8A
:1027500004D02A4840F25141FEF702FCBB6803F066
:102760008003002B0FD0FB79002B06D0FB685B6940
:1027700043F08002FB685A6105E0FB685B6923F067
:102780008002FB685A61BB68802B14D0FB79002B58
:1027900008D0FB681A68BB6803F01E031A43FB6885
:1027A0001A6008E0FB681A68BB6803F01E03DB438D
:1027B0001A40FB681A601037BD4680BD10600240A9
:1027C0002860024040600240586002407060024051
:1027D00088600240A0600240B8600240106402407D
:1027E0002864024040640240586402407064024021
:1027F00088640240A0640240B8640240148A000861
:1028000080B586B000AF786039600023FB75002387
:10281000FB600023BB607B68974A934240D07B6893
:10282000964A93423CD07B68954A934238D07B6865
:10283000944A934234D07B68934A934230D07B6869
:10284000924A93422CD07B68914A934228D07B686D
:10285000904A934224D07B688F4A934220D07B6871
:102860008E4A93421CD07B688D4A934218D07B6875
:102870008C4A934214D07B688B4A934210D07B6879
:102880008A4A93420CD07B68894A934208D07B687D
:10289000884A934204D0884840F28741FEF760FBA3
:1028A0003B68864A934200F0A9803B68844A934281
:1028B00000F0A4803B68834A934200F09F803B680D
:1028C000814A934200F09A803B68804A934200F02C
:1028D00095803B687E4A934200F090803B687D4A39
:1028E000934200F08B803B687B4A934200F08680E5
:1028F0003B687A4A934200F081803B68784A934271
:102900007CD03B68774A934278D03B68764A9342C2
:1029100074D03B68754A934270D03B68744A9342C6
:102920006CD03B68734A934268D03B68724A9342CA
:1029300064D03B68714A934260D03B68704A9342CE
:102940005CD03B686F4A934258D03B686E4A9342D2
:1029500054D03B686D4A934250D03B686C4A9342D6
:102960004CD03B686B4A934248D03B686A4A9342DA
:1029700044D03B68694A934240D03B68684A9342DE
:102980003CD03B68674A934238D03B68664A9342E2
:1029900034D03B68654A934230D03B68644A9342E6
:1029A0002CD03B68634A934228D03B68624A9342EA
:1029B00024D03B68614A934220D03B68604A9342EE
:1029C0001CD03B685F4A934218D03B685E4A9342F2
:1029D00014D03B685D4A934210D03B685C4A9342F6
:1029E0000CD03B685B4A934208D03B685A4A9342FA
:1029F00004D031484FF49161FEF7B2FA7B68574A30
:102A0000934202D8564B3B6101E0564B3B613B6819
:102A100023F0F02323F0C313002B0AD03B68DB0A1A
:102A200003F01E03FB607B681A68FB681340BB6001
:102A300004E07B685B6903F08003BB603B6803F0E4
:102A40000053002B03D03B695B68FB6002E03B69ED
:102A50001B68FB60FB6823F0F02323F08213FB600C
:102A6000FA683B681340002B7ED0BB68002B7BD0FC
:102A70000123FB757AE000BF10600240286002402D
:102A8000406002405860024070600240886002402E
:102A9000A0600240B8600240106402402864024016
:102AA00040640240586402407064024088640240FE
:102AB000A0640240B8640240148A0008208000101C
:102AC00010400010082000100410001001000090B9
:102AD00000880010004400100022001000110010B7
:102AE00040000090008020100040101000200810CE
:102AF0000010041000000190008000180040001435
:102B000000200012001000110000409020800020E2
:102B1000104000200820002004100020010000A028
:102B20000088002000440020002200200011002026
:102B3000400000A00080202000401020002008203D
:102B400000100420000001A00080002800400024A4
:102B50000020002200100021000040A00F6402406D
:102B600000600240006402400023FB75FB7D1846B4
:102B70001837BD4680BD00BF80B584B000AF786017
:102B800039607B683D4A934240D07B683C4A93421F
:102B90003CD07B683B4A934238D07B683A4A9342A8
:102BA00034D07B68394A934230D07B68384A9342AC
:102BB0002CD07B68374A934228D07B68364A9342B0
:102BC00024D07B68354A934220D07B68344A9342B4
:102BD0001CD07B68334A934218D07B68324A9342B8
:102BE00014D07B68314A934210D07B68304A9342BC
:102BF0000CD07B682F4A934208D07B682E4A9342C0
:102C000004D02E4840F2D741FEF7AAF93B6803F002
:102C10004053B3F1405F0CD03B6803F04053002BAE
:102C200007D03B68002B04D03A68254B1340002B9B
:102C300004D022484FF49B61FEF792F97B68214A49
:102C4000934202D8204BFB6001E0204BFB603B68C5
:102C500003F00053002B07D03B6823F0F02323F050
:102C60008213FA68D36006E03B6823F0F02323F078
:102C70008213FA6893601037BD4680BD1060024031
:102C8000286002404060024058600240706002408C
:102C900088600240A0600240B860024010640240B8
:102CA000286402404064024058640240706402405C
:102CB00088640240A0640240B8640240148A00089C
:102CC000820082400F6402400060024000640240C3
:102CD00080B483B000AF03463960FB7197F90730C9
:102CE000002B0BDA0D49FB7903F00F03043B3A6824
:102CF000D2B21201D2B20B441A7609E0084997F910
:102D000007303A68D2B21201D2B20B4483F80023E2
:102D10000C37BD465DF8047B704700BF00ED00E056
:102D200000E100E080B582B000AF78607B68B3F16D
:102D3000807F01D3012311E00A4A7B6823F07F439F
:102D4000013B53604FF0FF300F21FFF7C1FF054BF0
:102D500000229A60034B07221A60002318460837A6
:102D6000BD4680BD10E000E080B400AF034B1B689F
:102D70001846BD465DF8047B704700BFC4080020BC
:102D800080B582B000AF78600B4B1B78002B00D071
:102D90000EE00A4B1A687B68B2FBF3F31846FFF7A4
:102DA000C1FF0346002B00D0FEE7034B01221A703F
:102DB0000837BD4680BD00BFC008002010000020BD
:102DC00080B400AF044B1B680133034A1360BD4657
:102DD0005DF8047B704700BFC408002080B584B054
:102DE00000AF78600023FB730023BB730F237B735A
:102DF0007B68DB78002B07D07B68DB78012B03D066
:102E000031488721FEF7ACF87B685B780F2B03D93C
:102E10002D488821FEF7A4F87B689B780F2B03D9F7
:102E200029488921FEF79CF87B68DB78002B38D095
:102E3000264BDB68DB4303F4E0631B0AFB73FB7B7D
:102E4000C3F10403BB737A7BFB7B42FA03F37B730E
:102E50007B685B781A46BB7B02FA03F3FB737B68E3
:102E60009A787B7B1340DAB2FB7B1343FB73FB7BCB
:102E70001B01FB73164A7B681B781344FA7B83F8AB
:102E80000023134A7B681B785B09DBB218467B681A
:102E90001B7803F01F03012101FA03F342F82030ED
:102EA0000FE00B497B681B785B09DBB218467B6837
:102EB0001B7803F01F0301229A4000F1200341F820
:102EC00023201037BD4680BD588A000800ED00E081
:102ED00000E100E080B584B000AF78603960002385
:102EE000FB817B685D4A934238D07B68B3F1804FA9
:102EF00034D07B685A4A934230D07B68594A934217
:102F00002CD07B68584A934228D07B68574A93421A
:102F100024D07B68564A934220D07B68554A93421E
:102F20001CD07B68544A934218D07B68534A934222
:102F300014D07B68524A934210D07B68514A934226
:102F40000CD07B68504A934208D07B684F4A93422A
:102F500004D04F4840F21F11FEF702F83B685B882F
:102F6000002B14D03B685B88102B10D03B685B882B
:102F7000202B0CD03B685B88402B08D03B685B88DB
:102F8000602B04D042484FF49071FDF7E9FF3B6895
:102F90001B89002B0ED03B681B89B3F5807F09D0BD
:102FA0003B681B89B3F5007F04D0394840F22111FA
:102FB000FDF7D6FF7B681B88FB817B68274A93421D
:102FC00013D07B682B4A93420FD07B68B3F1804FBC
:102FD0000BD07B68224A934207D07B68214A9342F8
:102FE00003D07B68204A934208D1FB8923F0700309
:102FF000FB813B685A88FB891343FB817B681B4A32
:1030000093420CD07B681A4A934208D0FB8923F480
:103010004073FB813B681A89FB891343FB817B6802
:10302000FA891A803B685A687B68DA623B681A88BA
:103030007B681A857B68094A934203D07B680D4AF6
:10304000934204D13B689B7A9AB27B681A867B686C
:1030500001229A821037BD4680BD00BF00000140AA
:103060000004004000080040000C00400010004038
:1030700000140040000401400040014000440140B1
:103080000048014000180040001C004000200040A3
:10309000948A000880B483B000AF78607B684FF0FA
:1030A000FF325A607B6800221A807B6800221A81F6
:1030B0007B6800225A807B6800229A720C37BD46DA
:1030C0005DF8047B704700BF80B582B000AF7860C8
:1030D0000B46FB707B682F4A934238D07B68B3F174
:1030E000804F34D07B682C4A934230D07B682B4A87
:1030F00093422CD07B682A4A934228D07B68294A85
:10310000934224D07B68284A934220D07B68274A88
:1031100093421CD07B68264A934218D07B68254A8C
:10312000934214D07B68244A934210D07B68234A90
:1031300093420CD07B68224A934208D07B68214A94
:10314000934204D0204840F24D21FDF709FFFB785F
:10315000002B07D0FB78012B04D01B4840F24E21F6
:10316000FDF7FEFEFB78002B08D07B681B889BB226
:1031700043F001039AB27B681A8007E07B681B88E2
:103180009BB223F001039AB27B681A800837BD46D0
:1031900080BD00BF00000140000400400008004066
:1031A000000C0040001000400014004000040140EA
:1031B0000040014000440140004801400018004028
:1031C000001C004000200040948A000880B584B0B4
:1031D00000AF786039600023FB810123BB817B68ED
:1031E0003A4A934220D07B68B3F1804F1CD07B6871
:1031F000374A934218D07B68364A934214D07B6892
:10320000354A934210D07B68344A93420CD07B6895
:10321000334A934208D07B68324A934204D0324802
:1032200040F2B371FDF79CFE3B685B88002B02D136
:103230000223FB8101E00023FB813B689B88012B7B
:1032400002D10223BB8101E00123BB813B681B88C3
:10325000002B1CD13B6859883B689A883B681B89C6
:10326000786800F033FC3B68DB887868194600F02A
:103270007DF83B681B89F989BA89786800F068FC99
:103280003B68DB887868194600F0E8F81BE03B688B
:1032900059883B689A883B681B89786800F058FC1D
:1032A0003B68DB887868194600F0D8F83B681B89D2
:1032B000F989BA89786800F009FC3B68DB8878688E
:1032C000194600F053F81037BD4680BD000001409C
:1032D0000004004000080040000C004000040140D1
:1032E0000040014000180040948A000880B582B078
:1032F00000AF78607B68154A934220D07B68B3F1B9
:10330000804F1CD07B68124A934218D07B68114AC8
:10331000934214D07B68104A934210D07B680F4AC6
:1033200093420CD07B680E4A934208D07B680D4ACA
:10333000934204D00C484FF4FF61FDF711FE7B6807
:103340009B6B18460837BD4680BD00BF000001409A
:103350000004004000080040000C00400004014050
:103360000040014000180040948A000880B582B0F7
:1033700000AF78600B467B807B682C4A934230D04C
:103380007B68B3F1804F2CD07B68294A934228D0C8
:103390007B68284A934224D07B68274A934220D0F6
:1033A0007B68264A93421CD07B68254A934218D0FA
:1033B0007B68244A934214D07B68234A934210D0FE
:1033C0007B68224A93420CD07B68214A934208D002
:1033D0007B68204A934204D01F4840F62801FDF73D
:1033E000BFFD7B88002B0DD07B88042B0AD07B8807
:1033F000082B07D07B880C2B04D0174840F62901F6
:10340000FDF7AEFD7B681B8B9BB223F00C039AB2D9
:103410007B681A837B681B8B9AB27B8813439AB2B2
:103420007B681A830837BD4680BD00BF000001409D
:103430000004004000080040000C0040000401406F
:103440000040014000440140004801400018004095
:10345000001C004000200040948A000880B582B023
:1034600000AF78600B467B807B68254A934220D072
:103470007B68B3F1804F1CD07B68224A934218D0FE
:103480007B68214A934214D07B68204A934210D033
:103490007B681F4A93420CD07B681E4A934208D037
:1034A0007B681D4A934204D01C4840F64101FDF759
:1034B00057FD7B88002B0DD07B88042B0AD07B889E
:1034C000082B07D07B880C2B04D0144840F642010F
:1034D000FDF746FD7B681B8B9BB223F440639AB2D9
:1034E0007B681A837B681B8B9AB27B881B029BB21A
:1034F00013439AB27B681A830837BD4680BD00BF6C
:10350000000001400004004000080040000C0040A2
:10351000000401400040014000180040948A000867
:1035200080B582B000AF78600B467B8013467B701D
:103530007B68364A934238D07B68B3F1804F34D0F1
:103540007B68334A934230D07B68324A93422CD016
:103550007B68314A934228D07B68304A934224D01A
:103560007B682F4A934220D07B682E4A93421CD01E
:103570007B682D4A934218D07B682C4A934214D022
:103580007B682B4A934210D07B682A4A93420CD026
:103590007B68294A934208D07B68284A934204D02A
:1035A000274840F63D11FDF7DBFC7B8803F47F43A1
:1035B000002B02D17B88002B04D1214840F63E111C
:1035C000FDF7CEFC7B78002B07D07B78012B04D055
:1035D0001B4840F63F11FDF7C3FC7B78002B08D059
:1035E0007B689B899AB27B8813439AB27B689A81E5
:1035F00009E07B689B899AB27B88DB439BB21340CE
:103600009AB27B689A810837BD4680BD00000140B0
:103610000004004000080040000C00400010004082
:1036200000140040000401400040014000440140FB
:103630000048014000180040001C004000200040ED
:10364000948A000880B584B000AF78600B467B8018
:103650000023FB730023BB8100237B817B683A4AF4
:10366000934238D07B68B3F1804F34D07B68374ABF
:10367000934230D07B68364A93422CD07B68354ADF
:10368000934228D07B68344A934224D07B68334AE3
:10369000934220D07B68324A93421CD07B68314AE7
:1036A000934218D07B68304A934214D07B682F4AEB
:1036B000934210D07B682E4A93420CD07B682D4AEF
:1036C000934208D07B682C4A934204D02B4840F6A2
:1036D000CC11FDF745FC7B88012B19D07B88022B90
:1036E00016D07B88042B13D07B88082B10D07B88C6
:1036F000102B0DD07B88202B0AD07B88402B07D045
:103700007B88802B04D01D4840F6CD11FDF728FCA6
:103710007B681B8A9AB27B881340BB817B689B893C
:103720009AB27B8813407B81BB89002B05D07B89B3
:10373000002B02D00123FB7301E00023FB73FB7B12
:1037400018461037BD4680BD00000140000400400F
:1037500000080040000C0040001000400014004031
:103760000004014000400140004401400048014085
:1037700000180040001C004000200040948A00080F
:1037800080B582B000AF78600B467B807B68224AB0
:10379000934238D07B68B3F1804F34D07B681F4AA6
:1037A000934230D07B681E4A93422CD07B681D4ADE
:1037B000934228D07B681C4A934224D07B681B4AE2
:1037C000934220D07B681A4A93421CD07B68194AE6
:1037D000934218D07B68184A934214D07B68174AEA
:1037E000934210D07B68164A93420CD07B68154AEE
:1037F000934208D07B68144A934204D0134840F6A1
:10380000F311FDF7ADFB7B88DB439AB27B681A822C
:103810000837BD4680BD00BF0000014000040040E5
:1038200000080040000C0040001000400014004060
:1038300000040140004001400044014000480140B4
:1038400000180040001C004000200040948A00083E
:1038500080B584B000AF78600B467B800023FB818D
:103860007B68314A934230D07B68B3F1804F2CD0D3
:103870007B682E4A934228D07B682D4A934224D0FD
:103880007B682C4A934220D07B682B4A93421CD001
:103890007B682A4A934218D07B68294A934214D005
:1038A0007B68284A934210D07B68274A93420CD009
:1038B0007B68264A934208D07B68254A934204D00D
:1038C000244840F64431FDF74BFB7B88002B19D090
:1038D0007B88102B16D07B88202B13D07B88302B35
:1038E00010D07B88402B0DD07B88502B0AD07B8852
:1038F000602B07D07B88702B04D0164840F64531EA
:10390000FDF72EFB7B681B89FB81FB8923F070038D
:10391000FB81FA897B881343FB817B68FA891A81D2
:103920001037BD4680BD00BF0000014000040040CC
:1039300000080040000C004000040140004001402D
:10394000004401400048014000180040001C0040B5
:1039500000200040948A000880B582B000AF7860F3
:103960000B467B807B68244A934220D07B68B3F16E
:10397000804F1CD07B68214A934218D07B68204A34
:10398000934214D07B681F4A934210D07B681E4A32
:1039900093420CD07B681D4A934208D07B681C4A36
:1039A000934204D01B4840F68531FDF7D9FA7B8855
:1039B000042B0DD07B88052B0AD07B88062B07D0E3
:1039C0007B88072B04D0134840F68631FDF7C8FAF0
:1039D0007B681B899BB223F007039AB27B681A812C
:1039E0007B681B899AB27B8813439AB27B681A81E1
:1039F0000837BD4680BD00BF000001400004004004
:103A000000080040000C004000040140004001405C
:103A100000180040948A000880B582B000AF78603A
:103A20000B467B807B68214A934220D07B68B3F1B0
:103A3000804F1CD07B681E4A934218D07B681D4A79
:103A4000934214D07B681C4A934210D07B681B4A77
:103A500093420CD07B681A4A934208D07B68194A7B
:103A6000934204D0184840F69C31FDF779FA7B88E0
:103A7000802B07D07B88002B04D0134840F69D3163
:103A8000FDF76EFA7B681B899BB223F080039AB224
:103A90007B681A817B681B899AB27B8813439AB230
:103AA0007B681A810837BD4680BD00BF0000014019
:103AB0000004004000080040000C004000040140E9
:103AC0000040014000180040948A000880B487B08C
:103AD00000AFF860084611461A4603467B810B4644
:103AE0003B811346FB800023FB820023BB82FB68E3
:103AF0001B8C9BB223F001039AB2FB681A84FB680B
:103B00001B8BFB82FB681B8CBB82FB8A23F0F303BD
:103B1000FB82FB881B019AB23B8913439AB2FB8A52
:103B20001343FB82BB8A23F00A03BB827A89BB8AD8
:103B300013439BB243F00103BB82FB68FA8A1A83EA
:103B4000FB68BA8A1A841C37BD465DF8047B70474F
:103B500080B487B000AFF860084611461A460346A5
:103B60007B810B463B811346FB800023FB820023B5
:103B7000BB8200237B82FB681B8C9BB223F010036B
:103B80009AB2FB681A84FB681B8BFB82FB681B8C58
:103B9000BB827B891B017B82FB8A23F440731B055C
:103BA0001B0DFB82FB881B039AB2FB8A1343FB822B
:103BB0003B891B029AB2FB8A1343FB82BB8A23F028
:103BC000A003BB827A8ABB8A13439BB243F01003E3
:103BD000BB82FB68FA8A1A83FB68BA8A1A841C378C
:103BE000BD465DF8047B704781F0004102E000BFF4
:103BF00083F0004330B54FEA41044FEA430594EAAD
:103C0000050F08BF90EA020F1FBF54EA000C55EAE7
:103C1000020C7FEA645C7FEA655C00F0E2804FEAB8
:103C20005454D4EB5555B8BF6D420CDD2C4480EA9A
:103C3000020281EA030382EA000083EA010180EACA
:103C4000020281EA0303362D88BF30BD11F0004F18
:103C50004FEA01314FF4801C4CEA113102D040424E
:103C600061EB410113F0004F4FEA03334CEA133389
:103C700002D0524263EB430394EA050F00F0A780A1
:103C8000A4F10104D5F1200E0DDB02FA0EFC22FA9C
:103C900005F2801841F1000103FA0EF2801843FA90
:103CA00005F359410EE0A5F120050EF1200E012A81
:103CB00003FA0EFC28BF4CF0020C43FA05F3C018BF
:103CC00051EBE37101F0004507D54FF0000EDCF138
:103CD000000C7EEB00006EEB0101B1F5801F1BD3E1
:103CE000B1F5001F0CD349085FEA30004FEA3C0CE5
:103CF00004F101044FEA445212F5800F80F09A80DB
:103D0000BCF1004F08BF5FEA500C50F1000041EBDE
:103D1000045141EA050130BD5FEA4C0C404141EBE2
:103D2000010111F4801FA4F10104E9D191F0000F09
:103D300004BF01460020B1FA81F308BF2033A3F18C
:103D40000B03B3F120020CDA0C3208DD02F1140C83
:103D5000C2F10C0201FA0CF021FA02F10CE002F1BE
:103D60001402D8BFC2F1200C01FA02F120FA0CFCB7
:103D7000DCBF41EA0C019040E41AA2BF01EB045100
:103D8000294330BD6FEA04041F3C1CDA0C340EDCFE
:103D900004F11404C4F1200220FA04F001FA02F341
:103DA00040EA030021FA04F345EA030130BDC4F1FF
:103DB0000C04C4F1200220FA02F001FA04F340EAF4
:103DC0000300294630BD21FA04F0294630BD94F0A5
:103DD000000F83F4801306BF81F480110134013D8C
:103DE0004EE77FEA645C18BF7FEA655C29D094EAFD
:103DF000050F08BF90EA020F05D054EA000C04BF7B
:103E00001946104630BD91EA030F1EBF0021002065
:103E100030BD5FEA545C05D14000494128BF41F004
:103E2000004130BD14F580043CBF01F5801130BD68
:103E300001F0004545F0FE4141F470014FF00000F3
:103E400030BD7FEA645C1ABF194610467FEA655CA4
:103E50001CBF0B46024650EA013406BF52EA033546
:103E600091EA030F41F4002130BD00BF90F0000F34
:103E700004BF0021704730B54FF4806404F1320470
:103E80004FF000054FF0000150E700BF90F0000F29
:103E900004BF0021704730B54FF4806404F1320450
:103EA00010F0004548BF40424FF000013EE700BF20
:103EB00042004FEAE2014FEA31014FEA02701FBFB0
:103EC00012F07F4393F07F4F81F06051704792F082
:103ED000000F14BF93F07F4F704730B54FF46074FC
:103EE00001F0004521F0004120E700BF50EA010247
:103EF00008BF704730B54FF000050AE050EA0102F4
:103F000008BF704730B511F0004502D5404261EB63
:103F100041014FF4806404F132045FEA915C3FF4A4
:103F2000DCAE4FF003025FEADC0C18BF03325FEA3D
:103F3000DC0C18BF033202EBDC02C2F1200300FAF2
:103F400003FC20FA02F001FA03FE40EA0E0021FA17
:103F500002F11444C1E600BF70B54FF0FF0C4CF401
:103F6000E06C1CEA11541DBF1CEA135594EA0C0FB7
:103F700095EA0C0F00F0DEF82C4481EA030621EAF2
:103F80004C5123EA4C5350EA013518BF52EA03352D
:103F900041F4801143F4801338D0A0FB02CE4FF0DF
:103FA0000005E1FB02E506F00042E0FB03E54FF00F
:103FB0000006E1FB03569CF0000F18BF4EF0010E07
:103FC000A4F1FF04B6F5007F64F5407404D25FEA03
:103FD0004E0E6D4146EB060642EAC62141EA5551B6
:103FE0004FEAC52040EA5E504FEACE2EB4F1FD0CF8
:103FF00088BFBCF5E06F1ED8BEF1004F08BF5FEA76
:10400000500E50F1000041EB045170BD06F0004627
:1040100046EA010140EA020081EA0301B4EB5C04D4
:10402000C2BFD4EB0C0541EA045170BD41F48011CC
:104030004FF0000E013C00F3AB8014F1360FDEBFF1
:10404000002001F0004170BDC4F10004203C35DACD
:104050000C341BDC04F11404C4F1200500FA05F350
:1040600020FA04F001FA05F240EA020001F00042F1
:1040700021F0004110EBD37021FA04F642EB060167
:104080005EEA430E08BF20EAD37070BDC4F10C0491
:10409000C4F1200500FA04F320FA05F001FA04F255
:1040A00040EA020001F0004110EBD37041F1000141
:1040B0005EEA430E08BF20EAD37070BDC4F120054C
:1040C00000FA05F24EEA020E20FA04F301FA05F2B4
:1040D00043EA020321FA04F001F0004121FA04F25C
:1040E00020EA020000EBD3705EEA430E08BF20EA2C
:1040F000D37070BD94F0000F0FD101F00046400066
:1041000041EB010111F4801F08BF013CF7D041EAE7
:10411000060195F0000F18BF704703F000465200EB
:1041200043EB030313F4801F08BF013DF7D043EABC
:104130000603704794EA0C0F0CEA135518BF95EA72
:104140000C0F0CD050EA410618BF52EA4306D1D1F9
:1041500081EA030101F000414FF0000070BD50EA18
:10416000410606BF1046194652EA430619D094EAA2
:104170000C0F02D150EA013613D195EA0C0F05D18C
:1041800052EA03361CBF104619460AD181EA0301E0
:1041900001F0004141F0FE4141F470014FF0000098
:1041A00070BD41F0FE4141F4780170BD70B54FF033
:1041B000FF0C4CF4E06C1CEA11541DBF1CEA1355B3
:1041C00094EA0C0F95EA0C0F00F0A7F8A4EB050495
:1041D00081EA030E52EA03354FEA013100F088808C
:1041E0004FEA03334FF0805545EA131343EA126355
:1041F0004FEA022245EA111545EA10654FEA00260A
:104200000EF000419D4208BF964244F1FD0404F5C2
:10421000407402D25B084FEA3202B61A65EB03051E
:104220005B084FEA32024FF480104FF4002CB6EBDB
:10423000020E75EB030E22BFB61A754640EA0C005B
:104240005B084FEA3202B6EB020E75EB030E22BF9B
:10425000B61A754640EA5C005B084FEA3202B6EBDC
:10426000020E75EB030E22BFB61A754640EA9C009B
:104270005B084FEA3202B6EB020E75EB030E22BF6B
:10428000B61A754640EADC0055EA060E18D04FEA29
:10429000051545EA16754FEA06164FEAC30343EAC9
:1042A00052734FEAC2025FEA1C1CC0D111F4801F96
:1042B0000BD141EA00014FF000004FF0004CB6E78F
:1042C00011F4801F04BF01430020B4F1FD0C88BF2E
:1042D000BCF5E06F3FF6AFAEB5EB030C04BFB6EB39
:1042E000020C5FEA500C50F1000041EB045170BD2C
:1042F0000EF0004E4EEA113114EB5C04C2BFD4EB59
:104300000C0541EA045170BD41F480114FF0000EDC
:10431000013C90E645EA060E8DE60CEA135594EA58
:104320000C0F08BF95EA0C0F3FF43BAF94EA0C0F5B
:104330000AD150EA01347FF434AF95EA0C0F7FF4D0
:1043400025AF104619462CE795EA0C0F06D152EA24
:1043500003353FF4FDAE1046194622E750EA410608
:1043600018BF52EA43067FF4C5AE50EA41047FF419
:104370000DAF52EA43057FF4EBAE12E74FEA41027C
:10438000B2F1E04324BFB3F5001CDCF1FE5C0DD9B3
:1043900001F0004C4FEAC0024CEA5070B2F1004FFD
:1043A00040EB830008BF20F00100704711F0804F00
:1043B00021D113F13872BCBF01F00040704741F4C5
:1043C00080114FEA5252C2F11802C2F1200C10FAC9
:1043D0000CF320FA02F018BF40F001004FEAC123AD
:1043E0004FEAD32303FA0CFC40EA0C0023FA02F351
:1043F0004FEA4303CCE77FEA625307D150EA013327
:104400001EBF4FF0FE4040F44000704701F00040F6
:1044100040F0FE4040F40000704700BF024B0A46E7
:104420000146186800F002B85004002010B502FBE5
:1044300001F100F02BF8044668B150F8042C22F08A
:104440000302043A242A18D8132A06D80346002265
:104450001A605A609A60204610BD00231B2A036030
:1044600043600FD9242A8360C36005BF03614361A1
:1044700000F1100300F11803E9E7002100F02EFB22
:10448000204610BD00F10803E1E700BF2DE9F04F21
:1044900001F10B05162D83B0064627D935F0070527
:1044A00000F1B680A94200F2B38000F065FBB5F5DB
:1044B000FC7F22D2C24FE80807EBC003DC689C42B5
:1044C00000F0C9816368E168A56823F00303234411
:1044D00030465A68E96042F001028D605A6000F08F
:1044E0004DFB0834204603B0BDE8F08F102900F2E0
:1044F0008F8000F041FB1025DCE7680A00F08F8018
:10450000042800F25481A80938304100AC4F07EB71
:104510008101CC68A14206D10CE0002A80F28280A1
:10452000E468A14206D0636823F003035A1B0F2AF4
:10453000F3DD01380130A2493C6901F1080E7445F0
:1045400000F07E81636823F003035A1B0F2A00F3F7
:104550006481002AC1F814E0C1F810E073DAB3F501
:10456000007F80F03981DB0801EBC3084FEAA30C20
:104570004A68D8F80890C4F80890012303FA0CF3AD
:104580001343C4F80C804B60C8F80840C9F80C40CD
:104590008210012494409C4262D8234206D120F02C
:1045A00003006400234200F10400FAD007EBC008C6
:1045B000C4468146DCF80C309C4507D142E1002915
:1045C00080F25281DB689C4500F03C815A6822F001
:1045D0000302511B0F29F2DD1C46D3F80CC054F81E
:1045E000088F5A1945F0010941F00105C3F80490FC
:1045F0003046C8F80CC0CCF808807A613A61C2F83D
:104600000CE0C2F808E05560515000F0B7FA69E7D5
:1046100000240C232046336003B0BDE8F08F7E21D8
:104620003F2073E72344E1685A68A56842F001021D
:10463000E96030468D605A6000F0A0FA08342046E8
:1046400003B0BDE8F08F234430465A6842F00102BF
:104650005A6000F093FA0834204603B0BDE8F08FAA
:10466000BC68636823F00308454504D8C5EB08031C
:104670000F2B00F38C80534BDFF858A11A68DAF83F
:10468000003001332A4404EB080B00F0508102F59E
:1046900080520F3222F47F6222F00F021146304620
:1046A000019200F06DFAB0F1FF3F8146019A00F0EF
:1046B000F580834500F2EF80434B1968CB451144E8
:1046C000196000F03D81DAF80000DFF808E1013000
:1046D0001BBFCBEB090B5944CEF80090196019F0C1
:1046E000070100F00781C1F10800C1F58051814444
:1046F00008314A44C2F30B02C2EB010A514630466C
:10470000019300F03DFA431C019B00F02781C9EBA7
:104710000002524442F001021968C7F8089051445F
:10472000BC42C9F804201960DFF89CA016D0B8F18B
:104730000F0F40F2E2806268A8F10C0323F0070338
:10474000E01802F001024FF0050E1A430F2B6260D1
:10475000C0F804E0C0F808E000F204811B4BBC681C
:104760001A68914288BF1960194B1A6891426268B1
:1047700088BF196022F003029542A2EB050301D81D
:104780000F2B04DC304600F0F9F90024AAE6621988
:1047900043F0010345F0010565603046BA6053609F
:1047A00000F0ECF90834204603B0BDE8F08F14287F
:1047B00069D9542800F29780280B6E304100A5E695
:1047C00054040020D0080020D4080020CC08002089
:1047D000C8080020600800205A0A042A56D9142A62
:1047E00000F2A7805B324FEA420C07EB8C0CDFF83B
:1047F000B481DCF80810614500F085804A6822F039
:104800000302934202D289688C45F7D1CA687B685B
:10481000E260A1609460CC60BAE6631942F00107DF
:1048200045F00105656030464B610B61C3F80CE053
:10483000C3F808E05F609A50083400F09FF951E631
:104840004B68A5E609F1010919F0030F0CF1080CFA
:104850007FF4B0AE2BE004F108036469A34208BF03
:1048600002303FF468AE2DE61A441C465168DB68FE
:1048700054F8085F41F0010151603046EB609D60E3
:1048800000F07CF92EE65B3041003FE69A093832B1
:104890004FEA420CA9E7BC423FF40EAFBC68626825
:1048A00022F0030268E7D8F80080984577D110F02D
:1048B000030FA8F1080300F1FF30F4D17B6823EA6D
:1048C00004037B6064009C423FF6CAAE002C3FF4B8
:1048D000C7AE234248467FF469AE6400234200F12C
:1048E0000400FAD062E6B0F5AA7F18D8E80B77305A
:1048F00041000BE64FF48051FBE60123C9F8043078
:104900004C46002238E7D8F8043092104FF0010CE2
:104910000CFA02F21343C8F804300A4678E740F272
:104920005453984217D8A80C7C304100EEE5103261
:10493000B4E6542A1ED81A0B6E324FEA420C54E7E2
:10494000CBF30B0000287FF4BEAE4244BB6842F0BC
:1049500001025A6002E7FC217E20D7E501224FF0D8
:10496000000AD9E604F10801304602F05BFCDAF8EF
:104970000010F3E6B2F5AA7F04D8DA0B77324FEADB
:10498000420C32E740F254518A4204D89A0C7C32ED
:104990004FEA420C29E74FF0FC0C7E2225E77B68AA
:1049A00090E700BF54040020844641EA000313F05E
:1049B00003036DD1403A41D351F8043B40F8043B26
:1049C00051F8043B40F8043B51F8043B40F8043BE9
:1049D00051F8043B40F8043B51F8043B40F8043BD9
:1049E00051F8043B40F8043B51F8043B40F8043BC9
:1049F00051F8043B40F8043B51F8043B40F8043BB9
:104A000051F8043B40F8043B51F8043B40F8043BA8
:104A100051F8043B40F8043B51F8043B40F8043B98
:104A200051F8043B40F8043B51F8043B40F8043B88
:104A300051F8043B40F8043B403ABDD2303211D328
:104A400051F8043B40F8043B51F8043B40F8043B68
:104A500051F8043B40F8043B51F8043B40F8043B58
:104A6000103AEDD20C3205D351F8043B40F8043B28
:104A7000043AF9D2043208D0D2071CBF11F8013B26
:104A800000F8013B01D30B8803806046704700BFEC
:104A9000082A13D38B078DD010F003038AD0C3F1FB
:104AA0000403D21ADB071CBF11F8013B00F8013BDD
:104AB00080D331F8023B20F8023B7BE7043AD9D39C
:104AC000013A11F8013B00F8013BF9D20B78037071
:104AD0004B7843708B7883706046704770B484075E
:104AE00046D0541E002A41D0CDB2034602E0621ED9
:104AF000E4B3144603F8015B9A07F8D1032C2ED9CE
:104B0000CDB245EA05250F2C45EA054519D903F133
:104B100010022646103E0F2E42F8105C42F80C5C44
:104B200042F8085C42F8045C02F11002F2D8A4F1E9
:104B3000100222F00F0204F00F041032032C134471
:104B40000DD91E462246043A032A46F8045BFAD8D9
:104B5000221F22F003020432134404F003042CB198
:104B6000C9B21C4403F8011BA342FBD170BC7047BF
:104B700014460346C2E700BF704700BF704700BF3E
:104B800038B5074C0023054608462360FDF7DCF8DE
:104B9000431C00D038BD2368002BFBD02B6038BDF0
:104BA000000900200EB4F0B59CB021AB0F4953F8BA
:104BB000042B019305466FF00044086802954FF4FA
:104BC00002774FF6FF7602A90695ADF814700494AB
:104BD0000794ADF8166000F03BF8029B00221A70B3
:104BE0001CB0BDE8F04003B0704700BF5004002087
:104BF00020F0030110F00300C0F1000051F8043B65
:104C000000F1040C4FEACC0C6FF000021CBF22FA3A
:104C10000CF213434FF0010C4CEA0C2C4CEA0C4CF8
:104C2000A3EB0C0222EA030212EACC1204BF51F8F1
:104C3000043B0430F4D0C2F1000102EA0102B2FAEE
:104C400082F2C2F11F0200EBD200704700000000A8
:104C50002DE9F04FBFB0894606920A93049002F006
:104C6000B9FB036813931846FFF7C2FFB9F80C307D
:104C700014901A0604D5D9F81030002B01F0A18049
:104C80009FED997B8DED107B00232EAF0F93239327
:104C9000229312931593079321973C464E46069D07
:104CA0002B78002B00F0A980252B02D1A5E0252B25
:104CB00003D015F8013F002BF9D1069BEB1A73B115
:104CC000229A23990698206001321944072A6360CA
:104CD0002391229272DC0834079A1A4407922B78A7
:104CE000002B00F0CB870023691C6D788DF86730AE
:104CF0001A46089303934FF0FF3A4B1CA5F120018D
:104D0000582900F2E483DFE811F07702E203E203BE
:104D10007B03E203E203E203E203E203E203F702BE
:104D20001402E203FB011802E2038203C102C10282
:104D3000C102C102C102C102C102C102C102E20339
:104D4000E203E203E203E203E203E203E203E2033B
:104D5000E203D0029103E2039103E203E203E203E0
:104D6000E2037403E203E2030C03E203E203E2035F
:104D7000E203E2032A03E203E2034403E203E20361
:104D8000E203E203E203E203E203E203E203E203FB
:104D90005F03330291039103910305033302E2039E
:104DA000E203ED02E20385020202CB037E02E2038C
:104DB0009902E2037A00E203E203510204980393AA
:104DC000314621AA02F078FE50B93C46039B83E7A6
:104DD0000498314621AA02F06FFE002800F08C8171
:104DE000B146B9F80C3013F0400F079B18BF4FF0D5
:104DF000FF3318463FB0BDE8F08F069D6FE706937E
:104E0000039B980640F1B4820A9B03F1070929F03D
:104E1000070303F10802D3E900890A9201234FF046
:104E2000000C8DF867C0CDF834A0BAF1000F03DB99
:104E3000039A22F08002039258EA090240F0578355
:104E4000BAF1000F00F05C84012B00F05A83022BB2
:104E500000F09A8439464FEAD80242EA49724FEA92
:104E6000D90008F0070381469046303358EA09021A
:104E700001F8013DEFD1039A0C91D20700F16E8544
:104E80007B1A0993099A92455346B8BF1346059376
:104E900000230E93BCF1000F02D0059B0133059354
:104EA000039B13F002030B9302D0059B023305937F
:104EB000039B13F0840940F01783089B059AC2EB0B
:104EC0000308B8F1000F40F30F83B8F1100F2399D6
:104ED000229ADFF81CA030DD53464FF0100BC2467B
:104EE000A8461D460DE000BF0000000000000000C5
:104EF000DC8A0008AAF1100ABAF1100F04F10804C4
:104F000017DD01321031072A2391229284E820080C
:104F1000F0DD0498314621AA02F0CEFD00287FF48E
:104F20005FAFAAF1100ABAF1100F2399229A3C46FA
:104F3000E7DC2B464546D0469A46013208EB010B8A
:104F4000072ACDF88CB02292C4F800A0C4F80480DF
:104F500000F37E849DF867C00834BCF1000F0FD0C9
:104F6000229B01330BF1010B0DF167010122072B8D
:104F7000CDF88CB0229384E8060000F3EA8308346D
:104F80000B9B73B1229B01330BF1020B1AA9022276
:104F9000072BCDF88CB0229384E8060000F3CD8374
:104FA0000834B9F1800F00F015830D9B099AC2EB0C
:104FB000030ABAF1000F3CDDBAF1100F229ADFF8B4
:104FC00064942BDD49465B46A9464FF01008DDF896
:104FD00010B00D4606E0AAF1100ABAF1100F04F164
:104FE000080417DD01321033072A2393229284E844
:104FF0002001F0DD5846314621AA02F05DFD00286F
:105000007FF4EEAEAAF1100ABAF1100F239B229A98
:105010003C46E7DC9B462B464D4699460132D3443D
:10502000072ACDF88CB0229284E8000600F3798339
:105030000834039BD90500F17082229B09990C9AD0
:10504000226001338B44072BCDF88CB06160229332
:1050500000F34A830834039B5A0741D5089B059AFD
:105060009D1A002D3CDD102D229BDFF8BCA323DD13
:105070004FF010085A46DDF8109004E0103D102D56
:1050800004F1080417DD01331032072B2392229319
:10509000C4F800A0C4F80480F0DD4846314621AAD7
:1050A00002F00AFD00287FF49BAE103D102D239ADC
:1050B000229B3C46E7DC93460133AB44072BCDF8FB
:1050C0008CB02293C4F800A0656009DD04983146D5
:1050D00021AA02F0F1FC00287FF482AEDDF88CB04A
:1050E000079B059A08998A42ACBF9B185B180793E7
:1050F000BBF1000F7FF46CAE002322933C46CEE55B
:10510000194603981D7840F004000390F5E50693D6
:10511000039B13F0200300F00E810A9B03F10709A3
:1051200029F0070303F10802D3E900890A9200235A
:1051300075E61D7819462B22DFE51D782A2D03F12F
:10514000010100F0B887A5F1300009280B464FF0A7
:10515000000A3FF6D3AD13F8015B0AEB8A0A00EBB5
:105160004A0AA5F130000928F5D94AEAEA7AC5E5E4
:105170000693039B8DF867209B0640F1A1800A9B54
:1051800003F1070929F00709D9E9002309F108010A
:105190000A9190469946002A73F10003C0F20E84EA
:1051A0009DF867C0CDF834A001233EE606939B4BE3
:1051B0001293039B8DF867209B0640F1F3800A9BB6
:1051C00003F1070929F00703D3E9008903F1080275
:1051D0000A92039BD90740F1F58058EA090300F0D1
:1051E000F180039A8DF86950302342F002028DF865
:1051F00068300392022312E61D781946002A7FF4D4
:105200007CAD202279E5039941F0200103911D78BE
:10521000194672E50693039B8DF867209A0640F1C4
:10522000B08407990A9A4FEAE179136808468846DC
:10523000043249460A92C3E9000130E50A9A06930E
:1052400013680C934FF0000B8DF867B002F104095E
:10525000002B00F04686BAF1000F0C98C0F2F685DC
:105260005946524602F0BAF8002800F077860C9BA7
:10527000CDF834B0C31A0993CDF8289023EAE3732C
:105280000593CDF838B09DF867C003E6A5F130006E
:10529000002113F8015B01EB810100EB4101A5F155
:1052A00030000928F5D9089128E50693039B8DF86D
:1052B000672043F010030393039B9B063FF55FAF0A
:1052C000039BD80600F16B83039B590640F167836B
:1052D0000A99B1F9008004314FEAE87942464B4619
:1052E0000A9158E71D7803996C2D00F0D38441F0A2
:1052F00010010391194600E50A9D296808910846A6
:105300000028294601F10401C0F2CB840A911D78DE
:105310001946F2E4039941F0400103911D781946C2
:10532000EBE40693039B43F010030393039B13F0FA
:1053300020037FF4F2AE039A12F0100240F01C83B7
:10534000039B13F0400300F017830A9913460A46A3
:105350000432B1F800800A924FF000095FE506932D
:10536000039B43F010030393039B98063FF54CAD5A
:10537000039BD90600F10983039B5A0640F105837C
:105380000A9AB2F8008004324FF0000901230A9211
:1053900045E50693224B1293039B8DF867209B06ED
:1053A0003FF50DAF039BD80640F1DC830A9A134604
:1053B0001B689846039B0432D9070A924FF00009F4
:1053C0003FF50BAF02232AE50A9906930A688DF888
:1053D00090200023012204319C4605920A918DF809
:1053E000673024ABCDF834C0CDF838C009920C93A7
:1053F00056E5039941F0080103911D7819467CE4B4
:10540000039941F0010103911D78194675E4039950
:1054100041F0800103911D7819466EE4108B00085D
:10542000FC8A0008308B0008DC8A00080693039B86
:105430008DF8672013F0080F0A9BD34603F1070984
:1054400000F0868329F0070393ED007B8DED107B40
:1054500003F108020A929DED100B02F0FFFA0128F9
:1054600040F05A83DDE910010022002302F060FEC3
:10547000002840F06B859DF867C0039BBD4ADFF8AC
:1054800000E323F080030393134603210020472DFC
:10549000D8BF734605910D900C9309910E90F9E4D5
:1054A0000A9803990693302203688DF86820024613
:1054B000782541F0020104329846AF4B12930391D4
:1054C0000A924FF000098DF869500223A7E4069371
:1054D0008DF86720002D00F0D183002301229C4627
:1054E00005928DF890507AE7DDF88CB035E5012B08
:1054F0007FF4ADACB9F1000F08BFB8F10A0F80F02E
:105500000D820DF1F80B08F130080BF8418DCBEB53
:1055100007030993CDF830B0B4E4652D40F3A080C3
:10552000DDE910010022002302F0F8FD002800F060
:105530004481229B914A226001330BF1010B01222D
:10554000072BCDF88CB02293626000F33F830834C0
:105550001B9B0F9A934203DB039BDA077FF57BAD1E
:10556000229B1499139A226001338B44072BCDF8A8
:105570008CB06160229300F39B8308340F9B5D1E07
:10558000002D7FF768AD102D229BDFF8F89140F3D6
:10559000B9814FF010085A46DDF810A004E0083435
:1055A000103D102D40F3AD8101331032072B2392B3
:1055B0002293C4F80090C4F80480F0DD50463146D0
:1055C00021AA02F079FA00287FF40AAC239A229BE0
:1055D0003C46E5E7089B059AC2EB030ABAF1000FC7
:1055E0007FF7E3ACBAF1100F229ADFF898912BDD28
:1055F00049465B46A9464FF01008DDF810B00D464D
:1056000006E0AAF1100ABAF1100F04F1080417DD40
:1056100001321033072A2393229284E82001F0DD1F
:105620005846314621AA02F047FA00287FF4D8AB49
:10563000AAF1100ABAF1100F239B229A3C46E7DC2C
:105640009B462B464D4699460132D344072ACDF856
:105650008CB0229284E8000600F351820834A4E45E
:105660000F9B229D012B40F31F820C9B2360013571
:105670000BF101030122072D23932295626000F3B1
:105680002582083414996160013503EB010B072D65
:10569000139BCDF88CB02295236000F3238208344D
:1056A0000023DDE91001002202F038FD0F9B0028E5
:1056B00040F0DD800C9A013B013501329B44072DFF
:1056C0002295CDF88CB02260636000F30D81083420
:1056D000159A6260013593441DAB072DCDF88CB04F
:1056E000229523607FF7B6AC0498314621AA02F0D8
:1056F000E3F900287FF474ABDDF88CB03C46AAE4F3
:10570000002B32D1039BD8072FD50DF1F80B302396
:105710000BF8413DCBEB07030993CDF830B0FFF711
:10572000B1BB0498314621AA02F0C6F900287FF4E3
:1057300057ABDDF88CB03C467BE40498314621AA97
:1057400002F0BAF900287FF44BABDDF88CB03C4690
:1057500027E40498314621AA02F0AEF900287FF42C
:105760003FABDDF88CB03C460AE4CDF824A00C97A2
:10577000FFF788BBF08A0008108B00082C8B00080C
:10578000EC8A0008308B00081298BB464FEA1813C9
:1057900008F00F0143EA09734FEA1912984691463F
:1057A000435C0BF8013D58EA0903EFD15B46CDF8A5
:1057B00030B0FB1A0993FFF765BB1B9D002D40F32A
:1057C00011820F9A0E998A421346A8BF0B461D46B6
:1057D0000C99002D01EB020A0BDD229B21600133A5
:1057E000AB44072BCDF88CB06560229300F3558352
:1057F00008340E9B002DA8BF5B1B002B1D4640F3F9
:10580000F580102D229BDFF8089640F3D2815A468E
:105810004FF01008DDF810B004E00834103D102DF2
:1058200040F3C68101331032072B23922293C4F830
:105830000090C4F80480F0DD5846314621AA02F0F9
:105840003BF900287FF4CCAA239A229B3C46E5E74B
:105850000498314621AA02F02FF900287FF4C0AA4B
:105860009DF867C0DDF88CB03C46FFF776BB03F1CE
:10587000FF38B8F1000F7FF72BAFB8F1100FDFF84A
:10588000909525DD5B464FF0100ADDF810B006E07C
:10589000A8F11008B8F1100F04F1080417DD013564
:1058A0001033072D2393229584E80006F0DD584637
:1058B000314621AA02F000F900287FF491AAA8F14C
:1058C0001008B8F1100F239B229D3C46E7DC9B4655
:1058D0000135C344072DCDF88CB02295C4F8009053
:1058E000C4F804807FF7F3AE0498314621AA02F091
:1058F000E3F800287FF474AADDF88CB0229D3C46C2
:10590000E6E693460133AB44072BCDF88CB02293E7
:10591000C4F8009065607FF79DABE5E6BB46CDF827
:1059200014C0404649460A22002302F051FC30329E
:10593000404649460BF8012D00230A2202F048FC9C
:105940008046894658EA0903EBD15B46FB1ADDF82D
:1059500014C0CDF830B00993FFF794BA302B0C9BEC
:105960003FF427AF013B1A460C93BA1A3023099231
:1059700001F8013CFFF786BA0A990A6804310A91D6
:1059800090464FF00009FFF74ABA0A990A680431B5
:1059900001230A9190464FF00009FFF740BA0A9A96
:1059A000136898464FEAE3791346043342460A9354
:1059B000002A4B4673F10003BFF6F2AB4FF02D0CFB
:1059C000D8F1000869EB49098DF867C0CDF834A01B
:1059D0000123FFF72ABA0498314621AA02F06CF895
:1059E00000287FF4FDA9DDF88CB03C460C9A0E9996
:1059F0001B9B0A4490460F9A934246DB039AD007BA
:105A000043D40F9AC8EB0A05D31A9D42A8BF1D467E
:105A1000002D0CDD229AC4F800800132AB44072A25
:105A2000CDF88CB06560229200F36F820834002DAF
:105A3000ACBF5D1B1D46002D7FF70DAB102D229BCB
:105A4000DFF8CC937FF75EAF4FF010085A46DDF8D1
:105A500010A004E00834103D102D7FF752AF013341
:105A60001032072B23922293C4F80090C4F80480CC
:105A7000F0DD5046314621AA02F01EF800287FF4DE
:105A8000AFA9239A229B3C46E5E7229A14981399E2
:105A9000216001328344072ACDF88CB060602292E5
:105AA00000F307820834ACE7039BD9073FF5DDAD6F
:105AB0000C9B236001350BF1010B0123072DCDF861
:105AC0008CB0229563607FF702AE0DE704983146F3
:105AD00021AA01F0F1FF00287FF482A9239B229DD7
